{
	"Will.sol": {
		"Will": {
			"abi": [
				{
					"inputs": [],
					"stateMutability": "payable",
					"type": "constructor"
				},
				{
					"inputs": [],
					"name": "hasDeceased",
					"outputs": [],
					"stateMutability": "nonpayable",
					"type": "function"
				},
				{
					"inputs": [
						{
							"internalType": "address payable",
							"name": "wallet",
							"type": "address"
						},
						{
							"internalType": "uint256",
							"name": "amount",
							"type": "uint256"
						}
					],
					"name": "setInheritence",
					"outputs": [],
					"stateMutability": "nonpayable",
					"type": "function"
				}
			],
			"devdoc": {
				"kind": "dev",
				"methods": {},
				"version": 1
			},
			"evm": {
				"assembly": "    /* \"Will.sol\":76:993  contract Will {\r... */\n  mstore(0x40, 0x80)\n    /* \"Will.sol\":199:209  msg.sender */\n  caller\n    /* \"Will.sol\":191:196  owner */\n  0x00\n  dup1\n    /* \"Will.sol\":191:209  owner = msg.sender */\n  0x0100\n  exp\n  dup2\n  sload\n  dup2\n  0xffffffffffffffffffffffffffffffffffffffff\n  mul\n  not\n  and\n  swap1\n  dup4\n  0xffffffffffffffffffffffffffffffffffffffff\n  and\n  mul\n  or\n  swap1\n  sstore\n  pop\n    /* \"Will.sol\":231:240  msg.value */\n  callvalue\n    /* \"Will.sol\":221:228  fortune */\n  0x01\n    /* \"Will.sol\":221:240  fortune = msg.value */\n  dup2\n  swap1\n  sstore\n  pop\n    /* \"Will.sol\":263:268  false */\n  0x00\n    /* \"Will.sol\":252:260  deceased */\n  0x02\n  0x00\n    /* \"Will.sol\":252:268  deceased = false */\n  0x0100\n  exp\n  dup2\n  sload\n  dup2\n  0xff\n  mul\n  not\n  and\n  swap1\n  dup4\n  iszero\n  iszero\n  mul\n  or\n  swap1\n  sstore\n  pop\n    /* \"Will.sol\":76:993  contract Will {\r... */\n  dataSize(sub_0)\n  dup1\n  dataOffset(sub_0)\n  0x00\n  codecopy\n  0x00\n  return\nstop\n\nsub_0: assembly {\n        /* \"Will.sol\":76:993  contract Will {\r... */\n      mstore(0x40, 0x80)\n      callvalue\n      dup1\n      iszero\n      tag_1\n      jumpi\n      0x00\n      dup1\n      revert\n    tag_1:\n      pop\n      jumpi(tag_2, lt(calldatasize, 0x04))\n      shr(0xe0, calldataload(0x00))\n      dup1\n      0xeddcca99\n      eq\n      tag_3\n      jumpi\n      dup1\n      0xfe2c9a08\n      eq\n      tag_4\n      jumpi\n    tag_2:\n      0x00\n      dup1\n      revert\n        /* \"Will.sol\":897:990  function hasDeceased() public onlyOwner {\r... */\n    tag_3:\n      tag_5\n      tag_6\n      jump\t// in\n    tag_5:\n      stop\n        /* \"Will.sol\":541:696  function setInheritence(address payable wallet,uint amount ) public {\r... */\n    tag_4:\n      tag_7\n      0x04\n      dup1\n      calldatasize\n      sub\n      dup2\n      add\n      swap1\n      tag_8\n      swap2\n      swap1\n      tag_9\n      jump\t// in\n    tag_8:\n      tag_10\n      jump\t// in\n    tag_7:\n      stop\n        /* \"Will.sol\":897:990  function hasDeceased() public onlyOwner {\r... */\n    tag_6:\n        /* \"Will.sol\":336:341  owner */\n      0x00\n      dup1\n      sload\n      swap1\n      0x0100\n      exp\n      swap1\n      div\n      0xffffffffffffffffffffffffffffffffffffffff\n      and\n        /* \"Will.sol\":322:341  msg.sender == owner */\n      0xffffffffffffffffffffffffffffffffffffffff\n      and\n        /* \"Will.sol\":322:332  msg.sender */\n      caller\n        /* \"Will.sol\":322:341  msg.sender == owner */\n      0xffffffffffffffffffffffffffffffffffffffff\n      and\n      eq\n        /* \"Will.sol\":314:342  require(msg.sender == owner) */\n      tag_12\n      jumpi\n      0x00\n      dup1\n      revert\n    tag_12:\n        /* \"Will.sol\":959:963  true */\n      0x01\n        /* \"Will.sol\":948:956  deceased */\n      0x02\n      0x00\n        /* \"Will.sol\":948:963  deceased = true */\n      0x0100\n      exp\n      dup2\n      sload\n      dup2\n      0xff\n      mul\n      not\n      and\n      swap1\n      dup4\n      iszero\n      iszero\n      mul\n      or\n      swap1\n      sstore\n      pop\n        /* \"Will.sol\":974:982  payout() */\n      tag_14\n        /* \"Will.sol\":974:980  payout */\n      tag_15\n        /* \"Will.sol\":974:982  payout() */\n      jump\t// in\n    tag_14:\n        /* \"Will.sol\":897:990  function hasDeceased() public onlyOwner {\r... */\n      jump\t// out\n        /* \"Will.sol\":541:696  function setInheritence(address payable wallet,uint amount ) public {\r... */\n    tag_10:\n        /* \"Will.sol\":620:633  familyWallets */\n      0x03\n        /* \"Will.sol\":639:645  wallet */\n      dup3\n        /* \"Will.sol\":620:646  familyWallets.push(wallet) */\n      swap1\n      dup1\n      0x01\n      dup2\n      sload\n      add\n      dup1\n      dup3\n      sstore\n      dup1\n      swap2\n      pop\n      pop\n      0x01\n      swap1\n      sub\n      swap1\n      0x00\n      mstore\n      keccak256(0x00, 0x20)\n      add\n      0x00\n      swap1\n      swap2\n      swap1\n      swap2\n      swap1\n      swap2\n      0x0100\n      exp\n      dup2\n      sload\n      dup2\n      0xffffffffffffffffffffffffffffffffffffffff\n      mul\n      not\n      and\n      swap1\n      dup4\n      0xffffffffffffffffffffffffffffffffffffffff\n      and\n      mul\n      or\n      swap1\n      sstore\n      pop\n        /* \"Will.sol\":680:686  amount */\n      dup1\n        /* \"Will.sol\":657:668  inheritence */\n      0x04\n        /* \"Will.sol\":657:676  inheritence[wallet] */\n      0x00\n        /* \"Will.sol\":669:675  wallet */\n      dup5\n        /* \"Will.sol\":657:676  inheritence[wallet] */\n      0xffffffffffffffffffffffffffffffffffffffff\n      and\n      0xffffffffffffffffffffffffffffffffffffffff\n      and\n      dup2\n      mstore\n      0x20\n      add\n      swap1\n      dup2\n      mstore\n      0x20\n      add\n      0x00\n      keccak256\n        /* \"Will.sol\":657:686  inheritence[wallet]  = amount */\n      dup2\n      swap1\n      sstore\n      pop\n        /* \"Will.sol\":541:696  function setInheritence(address payable wallet,uint amount ) public {\r... */\n      pop\n      pop\n      jump\t// out\n        /* \"Will.sol\":705:888  function payout() private mustBeDeceased {\r... */\n    tag_15:\n        /* \"Will.sol\":423:427  true */\n      0x01\n        /* \"Will.sol\":413:427  deceased==true */\n      iszero\n      iszero\n        /* \"Will.sol\":413:421  deceased */\n      0x02\n      0x00\n      swap1\n      sload\n      swap1\n      0x0100\n      exp\n      swap1\n      div\n      0xff\n      and\n        /* \"Will.sol\":413:427  deceased==true */\n      iszero\n      iszero\n      eq\n        /* \"Will.sol\":405:428  require(deceased==true) */\n      tag_19\n      jumpi\n      0x00\n      dup1\n      revert\n    tag_19:\n        /* \"Will.sol\":761:767  uint i */\n      0x00\n        /* \"Will.sol\":757:881  for(uint i=0;i<familyWallets.length; i++){\r... */\n    tag_21:\n        /* \"Will.sol\":772:785  familyWallets */\n      0x03\n        /* \"Will.sol\":772:792  familyWallets.length */\n      dup1\n      sload\n      swap1\n      pop\n        /* \"Will.sol\":770:771  i */\n      dup2\n        /* \"Will.sol\":770:792  i<familyWallets.length */\n      lt\n        /* \"Will.sol\":757:881  for(uint i=0;i<familyWallets.length; i++){\r... */\n      iszero\n      tag_22\n      jumpi\n        /* \"Will.sol\":813:826  familyWallets */\n      0x03\n        /* \"Will.sol\":827:828  i */\n      dup2\n        /* \"Will.sol\":813:829  familyWallets[i] */\n      dup2\n      sload\n      dup2\n      lt\n      tag_24\n      jumpi\n      tag_25\n      tag_26\n      jump\t// in\n    tag_25:\n    tag_24:\n      swap1\n      0x00\n      mstore\n      keccak256(0x00, 0x20)\n      add\n      0x00\n      swap1\n      sload\n      swap1\n      0x0100\n      exp\n      swap1\n      div\n      0xffffffffffffffffffffffffffffffffffffffff\n      and\n        /* \"Will.sol\":813:838  familyWallets[i].transfer */\n      0xffffffffffffffffffffffffffffffffffffffff\n      and\n        /* \"Will.sol\":813:869  familyWallets[i].transfer(inheritence[familyWallets[i]]) */\n      0x08fc\n        /* \"Will.sol\":839:850  inheritence */\n      0x04\n        /* \"Will.sol\":839:868  inheritence[familyWallets[i]] */\n      0x00\n        /* \"Will.sol\":851:864  familyWallets */\n      0x03\n        /* \"Will.sol\":865:866  i */\n      dup6\n        /* \"Will.sol\":851:867  familyWallets[i] */\n      dup2\n      sload\n      dup2\n      lt\n      tag_28\n      jumpi\n      tag_29\n      tag_26\n      jump\t// in\n    tag_29:\n    tag_28:\n      swap1\n      0x00\n      mstore\n      keccak256(0x00, 0x20)\n      add\n      0x00\n      swap1\n      sload\n      swap1\n      0x0100\n      exp\n      swap1\n      div\n      0xffffffffffffffffffffffffffffffffffffffff\n      and\n        /* \"Will.sol\":839:868  inheritence[familyWallets[i]] */\n      0xffffffffffffffffffffffffffffffffffffffff\n      and\n      0xffffffffffffffffffffffffffffffffffffffff\n      and\n      dup2\n      mstore\n      0x20\n      add\n      swap1\n      dup2\n      mstore\n      0x20\n      add\n      0x00\n      keccak256\n      sload\n        /* \"Will.sol\":813:869  familyWallets[i].transfer(inheritence[familyWallets[i]]) */\n      swap1\n      dup2\n      iszero\n      mul\n      swap1\n      mload(0x40)\n      0x00\n      mload(0x40)\n      dup1\n      dup4\n      sub\n      dup2\n      dup6\n      dup9\n      dup9\n      call\n      swap4\n      pop\n      pop\n      pop\n      pop\n      iszero\n      dup1\n      iszero\n      tag_32\n      jumpi\n      returndatasize\n      0x00\n      dup1\n      returndatacopy\n      revert(0x00, returndatasize)\n    tag_32:\n      pop\n        /* \"Will.sol\":794:797  i++ */\n      dup1\n      dup1\n      tag_33\n      swap1\n      tag_34\n      jump\t// in\n    tag_33:\n      swap2\n      pop\n      pop\n        /* \"Will.sol\":757:881  for(uint i=0;i<familyWallets.length; i++){\r... */\n      jump(tag_21)\n    tag_22:\n      pop\n        /* \"Will.sol\":705:888  function payout() private mustBeDeceased {\r... */\n      jump\t// out\n        /* \"#utility.yul\":7:162   */\n    tag_36:\n        /* \"#utility.yul\":61:66   */\n      0x00\n        /* \"#utility.yul\":99:105   */\n      dup2\n        /* \"#utility.yul\":86:106   */\n      calldataload\n        /* \"#utility.yul\":77:106   */\n      swap1\n      pop\n        /* \"#utility.yul\":115:156   */\n      tag_38\n        /* \"#utility.yul\":150:155   */\n      dup2\n        /* \"#utility.yul\":115:156   */\n      tag_39\n      jump\t// in\n    tag_38:\n        /* \"#utility.yul\":7:162   */\n      swap3\n      swap2\n      pop\n      pop\n      jump\t// out\n        /* \"#utility.yul\":168:307   */\n    tag_40:\n        /* \"#utility.yul\":214:219   */\n      0x00\n        /* \"#utility.yul\":252:258   */\n      dup2\n        /* \"#utility.yul\":239:259   */\n      calldataload\n        /* \"#utility.yul\":230:259   */\n      swap1\n      pop\n        /* \"#utility.yul\":268:301   */\n      tag_42\n        /* \"#utility.yul\":295:300   */\n      dup2\n        /* \"#utility.yul\":268:301   */\n      tag_43\n      jump\t// in\n    tag_42:\n        /* \"#utility.yul\":168:307   */\n      swap3\n      swap2\n      pop\n      pop\n      jump\t// out\n        /* \"#utility.yul\":313:803   */\n    tag_9:\n        /* \"#utility.yul\":389:395   */\n      0x00\n        /* \"#utility.yul\":397:403   */\n      dup1\n        /* \"#utility.yul\":446:448   */\n      0x40\n        /* \"#utility.yul\":434:443   */\n      dup4\n        /* \"#utility.yul\":425:432   */\n      dup6\n        /* \"#utility.yul\":421:444   */\n      sub\n        /* \"#utility.yul\":417:449   */\n      slt\n        /* \"#utility.yul\":414:533   */\n      iszero\n      tag_45\n      jumpi\n        /* \"#utility.yul\":452:531   */\n      tag_46\n      tag_47\n      jump\t// in\n    tag_46:\n        /* \"#utility.yul\":414:533   */\n    tag_45:\n        /* \"#utility.yul\":572:573   */\n      0x00\n        /* \"#utility.yul\":597:658   */\n      tag_48\n        /* \"#utility.yul\":650:657   */\n      dup6\n        /* \"#utility.yul\":641:647   */\n      dup3\n        /* \"#utility.yul\":630:639   */\n      dup7\n        /* \"#utility.yul\":626:648   */\n      add\n        /* \"#utility.yul\":597:658   */\n      tag_36\n      jump\t// in\n    tag_48:\n        /* \"#utility.yul\":587:658   */\n      swap3\n      pop\n        /* \"#utility.yul\":543:668   */\n      pop\n        /* \"#utility.yul\":707:709   */\n      0x20\n        /* \"#utility.yul\":733:786   */\n      tag_49\n        /* \"#utility.yul\":778:785   */\n      dup6\n        /* \"#utility.yul\":769:775   */\n      dup3\n        /* \"#utility.yul\":758:767   */\n      dup7\n        /* \"#utility.yul\":754:776   */\n      add\n        /* \"#utility.yul\":733:786   */\n      tag_40\n      jump\t// in\n    tag_49:\n        /* \"#utility.yul\":723:786   */\n      swap2\n      pop\n        /* \"#utility.yul\":678:796   */\n      pop\n        /* \"#utility.yul\":313:803   */\n      swap3\n      pop\n      swap3\n      swap1\n      pop\n      jump\t// out\n        /* \"#utility.yul\":890:994   */\n    tag_52:\n        /* \"#utility.yul\":935:942   */\n      0x00\n        /* \"#utility.yul\":964:988   */\n      tag_54\n        /* \"#utility.yul\":982:987   */\n      dup3\n        /* \"#utility.yul\":964:988   */\n      tag_55\n      jump\t// in\n    tag_54:\n        /* \"#utility.yul\":953:988   */\n      swap1\n      pop\n        /* \"#utility.yul\":890:994   */\n      swap2\n      swap1\n      pop\n      jump\t// out\n        /* \"#utility.yul\":1000:1126   */\n    tag_55:\n        /* \"#utility.yul\":1037:1044   */\n      0x00\n        /* \"#utility.yul\":1077:1119   */\n      0xffffffffffffffffffffffffffffffffffffffff\n        /* \"#utility.yul\":1070:1075   */\n      dup3\n        /* \"#utility.yul\":1066:1120   */\n      and\n        /* \"#utility.yul\":1055:1120   */\n      swap1\n      pop\n        /* \"#utility.yul\":1000:1126   */\n      swap2\n      swap1\n      pop\n      jump\t// out\n        /* \"#utility.yul\":1132:1209   */\n    tag_57:\n        /* \"#utility.yul\":1169:1176   */\n      0x00\n        /* \"#utility.yul\":1198:1203   */\n      dup2\n        /* \"#utility.yul\":1187:1203   */\n      swap1\n      pop\n        /* \"#utility.yul\":1132:1209   */\n      swap2\n      swap1\n      pop\n      jump\t// out\n        /* \"#utility.yul\":1215:1448   */\n    tag_34:\n        /* \"#utility.yul\":1254:1257   */\n      0x00\n        /* \"#utility.yul\":1277:1301   */\n      tag_60\n        /* \"#utility.yul\":1295:1300   */\n      dup3\n        /* \"#utility.yul\":1277:1301   */\n      tag_57\n      jump\t// in\n    tag_60:\n        /* \"#utility.yul\":1268:1301   */\n      swap2\n      pop\n        /* \"#utility.yul\":1323:1389   */\n      0xffffffffffffffffffffffffffffffffffffffffffffffffffffffffffffffff\n        /* \"#utility.yul\":1316:1321   */\n      dup3\n        /* \"#utility.yul\":1313:1390   */\n      eq\n        /* \"#utility.yul\":1310:1413   */\n      iszero\n      tag_61\n      jumpi\n        /* \"#utility.yul\":1393:1411   */\n      tag_62\n      tag_63\n      jump\t// in\n    tag_62:\n        /* \"#utility.yul\":1310:1413   */\n    tag_61:\n        /* \"#utility.yul\":1440:1441   */\n      0x01\n        /* \"#utility.yul\":1433:1438   */\n      dup3\n        /* \"#utility.yul\":1429:1442   */\n      add\n        /* \"#utility.yul\":1422:1442   */\n      swap1\n      pop\n        /* \"#utility.yul\":1215:1448   */\n      swap2\n      swap1\n      pop\n      jump\t// out\n        /* \"#utility.yul\":1454:1634   */\n    tag_63:\n        /* \"#utility.yul\":1502:1579   */\n      0x4e487b7100000000000000000000000000000000000000000000000000000000\n        /* \"#utility.yul\":1499:1500   */\n      0x00\n        /* \"#utility.yul\":1492:1580   */\n      mstore\n        /* \"#utility.yul\":1599:1603   */\n      0x11\n        /* \"#utility.yul\":1596:1597   */\n      0x04\n        /* \"#utility.yul\":1589:1604   */\n      mstore\n        /* \"#utility.yul\":1623:1627   */\n      0x24\n        /* \"#utility.yul\":1620:1621   */\n      0x00\n        /* \"#utility.yul\":1613:1628   */\n      revert\n        /* \"#utility.yul\":1640:1820   */\n    tag_26:\n        /* \"#utility.yul\":1688:1765   */\n      0x4e487b7100000000000000000000000000000000000000000000000000000000\n        /* \"#utility.yul\":1685:1686   */\n      0x00\n        /* \"#utility.yul\":1678:1766   */\n      mstore\n        /* \"#utility.yul\":1785:1789   */\n      0x32\n        /* \"#utility.yul\":1782:1783   */\n      0x04\n        /* \"#utility.yul\":1775:1790   */\n      mstore\n        /* \"#utility.yul\":1809:1813   */\n      0x24\n        /* \"#utility.yul\":1806:1807   */\n      0x00\n        /* \"#utility.yul\":1799:1814   */\n      revert\n        /* \"#utility.yul\":1949:2066   */\n    tag_47:\n        /* \"#utility.yul\":2058:2059   */\n      0x00\n        /* \"#utility.yul\":2055:2056   */\n      dup1\n        /* \"#utility.yul\":2048:2060   */\n      revert\n        /* \"#utility.yul\":2072:2210   */\n    tag_39:\n        /* \"#utility.yul\":2153:2185   */\n      tag_70\n        /* \"#utility.yul\":2179:2184   */\n      dup2\n        /* \"#utility.yul\":2153:2185   */\n      tag_52\n      jump\t// in\n    tag_70:\n        /* \"#utility.yul\":2146:2151   */\n      dup2\n        /* \"#utility.yul\":2143:2186   */\n      eq\n        /* \"#utility.yul\":2133:2204   */\n      tag_71\n      jumpi\n        /* \"#utility.yul\":2200:2201   */\n      0x00\n        /* \"#utility.yul\":2197:2198   */\n      dup1\n        /* \"#utility.yul\":2190:2202   */\n      revert\n        /* \"#utility.yul\":2133:2204   */\n    tag_71:\n        /* \"#utility.yul\":2072:2210   */\n      pop\n      jump\t// out\n        /* \"#utility.yul\":2216:2338   */\n    tag_43:\n        /* \"#utility.yul\":2289:2313   */\n      tag_73\n        /* \"#utility.yul\":2307:2312   */\n      dup2\n        /* \"#utility.yul\":2289:2313   */\n      tag_57\n      jump\t// in\n    tag_73:\n        /* \"#utility.yul\":2282:2287   */\n      dup2\n        /* \"#utility.yul\":2279:2314   */\n      eq\n        /* \"#utility.yul\":2269:2332   */\n      tag_74\n      jumpi\n        /* \"#utility.yul\":2328:2329   */\n      0x00\n        /* \"#utility.yul\":2325:2326   */\n      dup1\n        /* \"#utility.yul\":2318:2330   */\n      revert\n        /* \"#utility.yul\":2269:2332   */\n    tag_74:\n        /* \"#utility.yul\":2216:2338   */\n      pop\n      jump\t// out\n\n    auxdata: 0xa2646970667358221220a8df7529c695da5ef0909b2c5adfdf196adc573ae72f6859b199904a3aee895064736f6c63430008070033\n}\n",
				"bytecode": {
					"linkReferences": {},
					"object": "6080604052336000806101000a81548173ffffffffffffffffffffffffffffffffffffffff021916908373ffffffffffffffffffffffffffffffffffffffff160217905550346001819055506000600260006101000a81548160ff021916908315150217905550610487806100756000396000f3fe608060405234801561001057600080fd5b50600436106100365760003560e01c8063eddcca991461003b578063fe2c9a0814610045575b600080fd5b610043610061565b005b61005f600480360381019061005a91906102fb565b6100de565b005b60008054906101000a900473ffffffffffffffffffffffffffffffffffffffff1673ffffffffffffffffffffffffffffffffffffffff163373ffffffffffffffffffffffffffffffffffffffff16146100b957600080fd5b6001600260006101000a81548160ff0219169083151502179055506100dc610189565b565b6003829080600181540180825580915050600190039060005260206000200160009091909190916101000a81548173ffffffffffffffffffffffffffffffffffffffff021916908373ffffffffffffffffffffffffffffffffffffffff16021790555080600460008473ffffffffffffffffffffffffffffffffffffffff1673ffffffffffffffffffffffffffffffffffffffff168152602001908152602001600020819055505050565b60011515600260009054906101000a900460ff161515146101a957600080fd5b60005b6003805490508110156102ce57600381815481106101cd576101cc6103ef565b5b9060005260206000200160009054906101000a900473ffffffffffffffffffffffffffffffffffffffff1673ffffffffffffffffffffffffffffffffffffffff166108fc6004600060038581548110610229576102286103ef565b5b9060005260206000200160009054906101000a900473ffffffffffffffffffffffffffffffffffffffff1673ffffffffffffffffffffffffffffffffffffffff1673ffffffffffffffffffffffffffffffffffffffff168152602001908152602001600020549081150290604051600060405180830381858888f193505050501580156102ba573d6000803e3d6000fd5b5080806102c690610377565b9150506101ac565b50565b6000813590506102e081610423565b92915050565b6000813590506102f58161043a565b92915050565b600080604083850312156103125761031161041e565b5b6000610320858286016102d1565b9250506020610331858286016102e6565b9150509250929050565b60006103468261034d565b9050919050565b600073ffffffffffffffffffffffffffffffffffffffff82169050919050565b6000819050919050565b60006103828261036d565b91507fffffffffffffffffffffffffffffffffffffffffffffffffffffffffffffffff8214156103b5576103b46103c0565b5b600182019050919050565b7f4e487b7100000000000000000000000000000000000000000000000000000000600052601160045260246000fd5b7f4e487b7100000000000000000000000000000000000000000000000000000000600052603260045260246000fd5b600080fd5b61042c8161033b565b811461043757600080fd5b50565b6104438161036d565b811461044e57600080fd5b5056fea2646970667358221220a8df7529c695da5ef0909b2c5adfdf196adc573ae72f6859b199904a3aee895064736f6c63430008070033",
					"opcodes": "PUSH1 0x80 PUSH1 0x40 MSTORE CALLER PUSH1 0x0 DUP1 PUSH2 0x100 EXP DUP2 SLOAD DUP2 PUSH20 0xFFFFFFFFFFFFFFFFFFFFFFFFFFFFFFFFFFFFFFFF MUL NOT AND SWAP1 DUP4 PUSH20 0xFFFFFFFFFFFFFFFFFFFFFFFFFFFFFFFFFFFFFFFF AND MUL OR SWAP1 SSTORE POP CALLVALUE PUSH1 0x1 DUP2 SWAP1 SSTORE POP PUSH1 0x0 PUSH1 0x2 PUSH1 0x0 PUSH2 0x100 EXP DUP2 SLOAD DUP2 PUSH1 0xFF MUL NOT AND SWAP1 DUP4 ISZERO ISZERO MUL OR SWAP1 SSTORE POP PUSH2 0x487 DUP1 PUSH2 0x75 PUSH1 0x0 CODECOPY PUSH1 0x0 RETURN INVALID PUSH1 0x80 PUSH1 0x40 MSTORE CALLVALUE DUP1 ISZERO PUSH2 0x10 JUMPI PUSH1 0x0 DUP1 REVERT JUMPDEST POP PUSH1 0x4 CALLDATASIZE LT PUSH2 0x36 JUMPI PUSH1 0x0 CALLDATALOAD PUSH1 0xE0 SHR DUP1 PUSH4 0xEDDCCA99 EQ PUSH2 0x3B JUMPI DUP1 PUSH4 0xFE2C9A08 EQ PUSH2 0x45 JUMPI JUMPDEST PUSH1 0x0 DUP1 REVERT JUMPDEST PUSH2 0x43 PUSH2 0x61 JUMP JUMPDEST STOP JUMPDEST PUSH2 0x5F PUSH1 0x4 DUP1 CALLDATASIZE SUB DUP2 ADD SWAP1 PUSH2 0x5A SWAP2 SWAP1 PUSH2 0x2FB JUMP JUMPDEST PUSH2 0xDE JUMP JUMPDEST STOP JUMPDEST PUSH1 0x0 DUP1 SLOAD SWAP1 PUSH2 0x100 EXP SWAP1 DIV PUSH20 0xFFFFFFFFFFFFFFFFFFFFFFFFFFFFFFFFFFFFFFFF AND PUSH20 0xFFFFFFFFFFFFFFFFFFFFFFFFFFFFFFFFFFFFFFFF AND CALLER PUSH20 0xFFFFFFFFFFFFFFFFFFFFFFFFFFFFFFFFFFFFFFFF AND EQ PUSH2 0xB9 JUMPI PUSH1 0x0 DUP1 REVERT JUMPDEST PUSH1 0x1 PUSH1 0x2 PUSH1 0x0 PUSH2 0x100 EXP DUP2 SLOAD DUP2 PUSH1 0xFF MUL NOT AND SWAP1 DUP4 ISZERO ISZERO MUL OR SWAP1 SSTORE POP PUSH2 0xDC PUSH2 0x189 JUMP JUMPDEST JUMP JUMPDEST PUSH1 0x3 DUP3 SWAP1 DUP1 PUSH1 0x1 DUP2 SLOAD ADD DUP1 DUP3 SSTORE DUP1 SWAP2 POP POP PUSH1 0x1 SWAP1 SUB SWAP1 PUSH1 0x0 MSTORE PUSH1 0x20 PUSH1 0x0 KECCAK256 ADD PUSH1 0x0 SWAP1 SWAP2 SWAP1 SWAP2 SWAP1 SWAP2 PUSH2 0x100 EXP DUP2 SLOAD DUP2 PUSH20 0xFFFFFFFFFFFFFFFFFFFFFFFFFFFFFFFFFFFFFFFF MUL NOT AND SWAP1 DUP4 PUSH20 0xFFFFFFFFFFFFFFFFFFFFFFFFFFFFFFFFFFFFFFFF AND MUL OR SWAP1 SSTORE POP DUP1 PUSH1 0x4 PUSH1 0x0 DUP5 PUSH20 0xFFFFFFFFFFFFFFFFFFFFFFFFFFFFFFFFFFFFFFFF AND PUSH20 0xFFFFFFFFFFFFFFFFFFFFFFFFFFFFFFFFFFFFFFFF AND DUP2 MSTORE PUSH1 0x20 ADD SWAP1 DUP2 MSTORE PUSH1 0x20 ADD PUSH1 0x0 KECCAK256 DUP2 SWAP1 SSTORE POP POP POP JUMP JUMPDEST PUSH1 0x1 ISZERO ISZERO PUSH1 0x2 PUSH1 0x0 SWAP1 SLOAD SWAP1 PUSH2 0x100 EXP SWAP1 DIV PUSH1 0xFF AND ISZERO ISZERO EQ PUSH2 0x1A9 JUMPI PUSH1 0x0 DUP1 REVERT JUMPDEST PUSH1 0x0 JUMPDEST PUSH1 0x3 DUP1 SLOAD SWAP1 POP DUP2 LT ISZERO PUSH2 0x2CE JUMPI PUSH1 0x3 DUP2 DUP2 SLOAD DUP2 LT PUSH2 0x1CD JUMPI PUSH2 0x1CC PUSH2 0x3EF JUMP JUMPDEST JUMPDEST SWAP1 PUSH1 0x0 MSTORE PUSH1 0x20 PUSH1 0x0 KECCAK256 ADD PUSH1 0x0 SWAP1 SLOAD SWAP1 PUSH2 0x100 EXP SWAP1 DIV PUSH20 0xFFFFFFFFFFFFFFFFFFFFFFFFFFFFFFFFFFFFFFFF AND PUSH20 0xFFFFFFFFFFFFFFFFFFFFFFFFFFFFFFFFFFFFFFFF AND PUSH2 0x8FC PUSH1 0x4 PUSH1 0x0 PUSH1 0x3 DUP6 DUP2 SLOAD DUP2 LT PUSH2 0x229 JUMPI PUSH2 0x228 PUSH2 0x3EF JUMP JUMPDEST JUMPDEST SWAP1 PUSH1 0x0 MSTORE PUSH1 0x20 PUSH1 0x0 KECCAK256 ADD PUSH1 0x0 SWAP1 SLOAD SWAP1 PUSH2 0x100 EXP SWAP1 DIV PUSH20 0xFFFFFFFFFFFFFFFFFFFFFFFFFFFFFFFFFFFFFFFF AND PUSH20 0xFFFFFFFFFFFFFFFFFFFFFFFFFFFFFFFFFFFFFFFF AND PUSH20 0xFFFFFFFFFFFFFFFFFFFFFFFFFFFFFFFFFFFFFFFF AND DUP2 MSTORE PUSH1 0x20 ADD SWAP1 DUP2 MSTORE PUSH1 0x20 ADD PUSH1 0x0 KECCAK256 SLOAD SWAP1 DUP2 ISZERO MUL SWAP1 PUSH1 0x40 MLOAD PUSH1 0x0 PUSH1 0x40 MLOAD DUP1 DUP4 SUB DUP2 DUP6 DUP9 DUP9 CALL SWAP4 POP POP POP POP ISZERO DUP1 ISZERO PUSH2 0x2BA JUMPI RETURNDATASIZE PUSH1 0x0 DUP1 RETURNDATACOPY RETURNDATASIZE PUSH1 0x0 REVERT JUMPDEST POP DUP1 DUP1 PUSH2 0x2C6 SWAP1 PUSH2 0x377 JUMP JUMPDEST SWAP2 POP POP PUSH2 0x1AC JUMP JUMPDEST POP JUMP JUMPDEST PUSH1 0x0 DUP2 CALLDATALOAD SWAP1 POP PUSH2 0x2E0 DUP2 PUSH2 0x423 JUMP JUMPDEST SWAP3 SWAP2 POP POP JUMP JUMPDEST PUSH1 0x0 DUP2 CALLDATALOAD SWAP1 POP PUSH2 0x2F5 DUP2 PUSH2 0x43A JUMP JUMPDEST SWAP3 SWAP2 POP POP JUMP JUMPDEST PUSH1 0x0 DUP1 PUSH1 0x40 DUP4 DUP6 SUB SLT ISZERO PUSH2 0x312 JUMPI PUSH2 0x311 PUSH2 0x41E JUMP JUMPDEST JUMPDEST PUSH1 0x0 PUSH2 0x320 DUP6 DUP3 DUP7 ADD PUSH2 0x2D1 JUMP JUMPDEST SWAP3 POP POP PUSH1 0x20 PUSH2 0x331 DUP6 DUP3 DUP7 ADD PUSH2 0x2E6 JUMP JUMPDEST SWAP2 POP POP SWAP3 POP SWAP3 SWAP1 POP JUMP JUMPDEST PUSH1 0x0 PUSH2 0x346 DUP3 PUSH2 0x34D JUMP JUMPDEST SWAP1 POP SWAP2 SWAP1 POP JUMP JUMPDEST PUSH1 0x0 PUSH20 0xFFFFFFFFFFFFFFFFFFFFFFFFFFFFFFFFFFFFFFFF DUP3 AND SWAP1 POP SWAP2 SWAP1 POP JUMP JUMPDEST PUSH1 0x0 DUP2 SWAP1 POP SWAP2 SWAP1 POP JUMP JUMPDEST PUSH1 0x0 PUSH2 0x382 DUP3 PUSH2 0x36D JUMP JUMPDEST SWAP2 POP PUSH32 0xFFFFFFFFFFFFFFFFFFFFFFFFFFFFFFFFFFFFFFFFFFFFFFFFFFFFFFFFFFFFFFFF DUP3 EQ ISZERO PUSH2 0x3B5 JUMPI PUSH2 0x3B4 PUSH2 0x3C0 JUMP JUMPDEST JUMPDEST PUSH1 0x1 DUP3 ADD SWAP1 POP SWAP2 SWAP1 POP JUMP JUMPDEST PUSH32 0x4E487B7100000000000000000000000000000000000000000000000000000000 PUSH1 0x0 MSTORE PUSH1 0x11 PUSH1 0x4 MSTORE PUSH1 0x24 PUSH1 0x0 REVERT JUMPDEST PUSH32 0x4E487B7100000000000000000000000000000000000000000000000000000000 PUSH1 0x0 MSTORE PUSH1 0x32 PUSH1 0x4 MSTORE PUSH1 0x24 PUSH1 0x0 REVERT JUMPDEST PUSH1 0x0 DUP1 REVERT JUMPDEST PUSH2 0x42C DUP2 PUSH2 0x33B JUMP JUMPDEST DUP2 EQ PUSH2 0x437 JUMPI PUSH1 0x0 DUP1 REVERT JUMPDEST POP JUMP JUMPDEST PUSH2 0x443 DUP2 PUSH2 0x36D JUMP JUMPDEST DUP2 EQ PUSH2 0x44E JUMPI PUSH1 0x0 DUP1 REVERT JUMPDEST POP JUMP INVALID LOG2 PUSH5 0x6970667358 0x22 SLT KECCAK256 0xA8 0xDF PUSH22 0x29C695DA5EF0909B2C5ADFDF196ADC573AE72F6859B1 SWAP10 SWAP1 0x4A GASPRICE 0xEE DUP10 POP PUSH5 0x736F6C6343 STOP ADDMOD SMOD STOP CALLER "
				},
				"gasEstimates": {
					"creation": {
						"codeDepositCost": "231800",
						"executionCost": "70897",
						"totalCost": "302697"
					},
					"external": {
						"hasDeceased()": "infinite",
						"setInheritence(address,uint256)": "71411"
					},
					"internal": {
						"payout()": "infinite"
					}
				},
				"methodIdentifiers": {
					"hasDeceased()": "eddcca99",
					"setInheritence(address,uint256)": "fe2c9a08"
				}
			},
			"userdoc": {
				"kind": "user",
				"methods": {},
				"version": 1
			}
		}
	}
}